{
  "contractName": "MedicalReport",
  "abi": [
    {
      "inputs": [
        {
          "internalType": "string",
          "name": "details_",
          "type": "string"
        },
        {
          "internalType": "address",
          "name": "sender_",
          "type": "address"
        }
      ],
      "stateMutability": "nonpayable",
      "type": "constructor"
    },
    {
      "anonymous": false,
      "inputs": [],
      "name": "AccessDetails",
      "type": "event"
    },
    {
      "anonymous": false,
      "inputs": [
        {
          "indexed": false,
          "internalType": "string",
          "name": "details",
          "type": "string"
        }
      ],
      "name": "AddDetails",
      "type": "event"
    },
    {
      "anonymous": false,
      "inputs": [
        {
          "indexed": false,
          "internalType": "address",
          "name": "account",
          "type": "address"
        }
      ],
      "name": "GiveAccess",
      "type": "event"
    },
    {
      "anonymous": false,
      "inputs": [
        {
          "indexed": false,
          "internalType": "address",
          "name": "account",
          "type": "address"
        }
      ],
      "name": "RevokeAccess",
      "type": "event"
    },
    {
      "inputs": [],
      "name": "details",
      "outputs": [
        {
          "internalType": "string",
          "name": "",
          "type": "string"
        }
      ],
      "stateMutability": "view",
      "type": "function"
    },
    {
      "inputs": [],
      "name": "ownerAddress",
      "outputs": [
        {
          "internalType": "address",
          "name": "",
          "type": "address"
        }
      ],
      "stateMutability": "view",
      "type": "function"
    },
    {
      "inputs": [
        {
          "internalType": "address",
          "name": "",
          "type": "address"
        }
      ],
      "name": "providers",
      "outputs": [
        {
          "internalType": "bool",
          "name": "",
          "type": "bool"
        }
      ],
      "stateMutability": "view",
      "type": "function"
    },
    {
      "inputs": [
        {
          "internalType": "address",
          "name": "_account",
          "type": "address"
        }
      ],
      "name": "_verifyAccess",
      "outputs": [
        {
          "internalType": "bool",
          "name": "",
          "type": "bool"
        }
      ],
      "stateMutability": "view",
      "type": "function"
    },
    {
      "inputs": [
        {
          "internalType": "address",
          "name": "sender",
          "type": "address"
        }
      ],
      "name": "_accessDetails",
      "outputs": [
        {
          "internalType": "string",
          "name": "",
          "type": "string"
        }
      ],
      "stateMutability": "view",
      "type": "function"
    },
    {
      "inputs": [],
      "name": "_getOwner",
      "outputs": [
        {
          "internalType": "address",
          "name": "",
          "type": "address"
        }
      ],
      "stateMutability": "view",
      "type": "function"
    },
    {
      "inputs": [
        {
          "internalType": "address",
          "name": "_owner",
          "type": "address"
        },
        {
          "internalType": "address",
          "name": "_account",
          "type": "address"
        }
      ],
      "name": "_giveAccess",
      "outputs": [
        {
          "internalType": "string",
          "name": "",
          "type": "string"
        }
      ],
      "stateMutability": "nonpayable",
      "type": "function"
    },
    {
      "inputs": [
        {
          "internalType": "address",
          "name": "_owner",
          "type": "address"
        },
        {
          "internalType": "address",
          "name": "_account",
          "type": "address"
        }
      ],
      "name": "_revokeAccess",
      "outputs": [
        {
          "internalType": "string",
          "name": "",
          "type": "string"
        }
      ],
      "stateMutability": "nonpayable",
      "type": "function"
    },
    {
      "inputs": [
        {
          "internalType": "address",
          "name": "_owner",
          "type": "address"
        }
      ],
      "name": "_allProvider",
      "outputs": [
        {
          "components": [
            {
              "internalType": "address",
              "name": "providerAdd",
              "type": "address"
            },
            {
              "internalType": "bool",
              "name": "premission",
              "type": "bool"
            }
          ],
          "internalType": "struct providerAll[]",
          "name": "",
          "type": "tuple[]"
        }
      ],
      "stateMutability": "view",
      "type": "function"
    }
  ],
  "bytecode": "0x60806040523480156200001157600080fd5b5060405162001590380380620015908339818101604052810190620000379190620002e0565b806000806101000a81548173ffffffffffffffffffffffffffffffffffffffff021916908373ffffffffffffffffffffffffffffffffffffffff16021790555062000088826200009060201b60201c565b5050620006ee565b8060019081620000a1919062000591565b507fbd5b5c69f4e137b236c0556d75664c0d0fff6d2bd7407142189755860da52e8981604051620000d39190620006ca565b60405180910390a150565b6000604051905090565b600080fd5b600080fd5b600080fd5b600080fd5b6000601f19601f8301169050919050565b7f4e487b7100000000000000000000000000000000000000000000000000000000600052604160045260246000fd5b6200014782620000fc565b810181811067ffffffffffffffff821117156200016957620001686200010d565b5b80604052505050565b60006200017e620000de565b90506200018c82826200013c565b919050565b600067ffffffffffffffff821115620001af57620001ae6200010d565b5b620001ba82620000fc565b9050602081019050919050565b60005b83811015620001e7578082015181840152602081019050620001ca565b83811115620001f7576000848401525b50505050565b6000620002146200020e8462000191565b62000172565b905082815260208101848484011115620002335762000232620000f7565b5b62000240848285620001c7565b509392505050565b600082601f83011262000260576200025f620000f2565b5b815162000272848260208601620001fd565b91505092915050565b600073ffffffffffffffffffffffffffffffffffffffff82169050919050565b6000620002a8826200027b565b9050919050565b620002ba816200029b565b8114620002c657600080fd5b50565b600081519050620002da81620002af565b92915050565b60008060408385031215620002fa57620002f9620000e8565b5b600083015167ffffffffffffffff8111156200031b576200031a620000ed565b5b620003298582860162000248565b92505060206200033c85828601620002c9565b9150509250929050565b600081519050919050565b7f4e487b7100000000000000000000000000000000000000000000000000000000600052602260045260246000fd5b600060028204905060018216806200039957607f821691505b602082108103620003af57620003ae62000351565b5b50919050565b60008190508160005260206000209050919050565b60006020601f8301049050919050565b600082821b905092915050565b600060088302620004197fffffffffffffffffffffffffffffffffffffffffffffffffffffffffffffffff82620003da565b620004258683620003da565b95508019841693508086168417925050509392505050565b6000819050919050565b6000819050919050565b6000620004726200046c62000466846200043d565b62000447565b6200043d565b9050919050565b6000819050919050565b6200048e8362000451565b620004a66200049d8262000479565b848454620003e7565b825550505050565b600090565b620004bd620004ae565b620004ca81848462000483565b505050565b5b81811015620004f257620004e6600082620004b3565b600181019050620004d0565b5050565b601f82111562000541576200050b81620003b5565b6200051684620003ca565b8101602085101562000526578190505b6200053e6200053585620003ca565b830182620004cf565b50505b505050565b600082821c905092915050565b6000620005666000198460080262000546565b1980831691505092915050565b600062000581838362000553565b9150826002028217905092915050565b6200059c8262000346565b67ffffffffffffffff811115620005b857620005b76200010d565b5b620005c4825462000380565b620005d1828285620004f6565b600060209050601f831160018114620006095760008415620005f4578287015190505b62000600858262000573565b86555062000670565b601f1984166200061986620003b5565b60005b8281101562000643578489015182556001820191506020850194506020810190506200061c565b868310156200066357848901516200065f601f89168262000553565b8355505b6001600288020188555050505b505050505050565b600082825260208201905092915050565b6000620006968262000346565b620006a2818562000678565b9350620006b4818560208601620001c7565b620006bf81620000fc565b840191505092915050565b60006020820190508181036000830152620006e6818462000689565b905092915050565b610e9280620006fe6000396000f3fe608060405234801561001057600080fd5b50600436106100935760003560e01c8063565974d311610066578063565974d3146101585780638f84aa0914610176578063e938aa9914610194578063f7e6af80146101c4578063fcc9b926146101e257610093565b80630787bc2714610098578063102779a9146100c85780633d995d41146100f85780635477c84914610128575b600080fd5b6100b260048036038101906100ad9190610a0b565b610212565b6040516100bf9190610a53565b60405180910390f35b6100e260048036038101906100dd9190610a6e565b610232565b6040516100ef9190610b47565b60405180910390f35b610112600480360381019061010d9190610a6e565b610318565b60405161011f9190610b47565b60405180910390f35b610142600480360381019061013d9190610a0b565b610461565b60405161014f9190610b47565b60405180910390f35b610160610543565b60405161016d9190610b47565b60405180910390f35b61017e6105d1565b60405161018b9190610b78565b60405180910390f35b6101ae60048036038101906101a99190610a0b565b6105f5565b6040516101bb9190610c8f565b60405180910390f35b6101cc6107e2565b6040516101d99190610b78565b60405180910390f35b6101fc60048036038101906101f79190610a0b565b61080b565b6040516102099190610a53565b60405180910390f35b60026020528060005260406000206000915054906101000a900460ff1681565b606061023d83610872565b156102d7576000600260008473ffffffffffffffffffffffffffffffffffffffff1673ffffffffffffffffffffffffffffffffffffffff16815260200190815260200160002060006101000a81548160ff0219169083151502179055506040518060400160405280600481526020017f646f6e65000000000000000000000000000000000000000000000000000000008152509050610312565b6040517f08c379a000000000000000000000000000000000000000000000000000000000815260040161030990610cfd565b60405180910390fd5b92915050565b606061032383610872565b15610420576001600260008473ffffffffffffffffffffffffffffffffffffffff1673ffffffffffffffffffffffffffffffffffffffff16815260200190815260200160002060006101000a81548160ff0219169083151502179055506003829080600181540180825580915050600190039060005260206000200160009091909190916101000a81548173ffffffffffffffffffffffffffffffffffffffff021916908373ffffffffffffffffffffffffffffffffffffffff1602179055506040518060400160405280600481526020017f646f6e6500000000000000000000000000000000000000000000000000000000815250905061045b565b6040517f08c379a000000000000000000000000000000000000000000000000000000000815260040161045290610cfd565b60405180910390fd5b92915050565b606061046c826108ca565b15610503576001805461047e90610d4c565b80601f01602080910402602001604051908101604052809291908181526020018280546104aa90610d4c565b80156104f75780601f106104cc576101008083540402835291602001916104f7565b820191906000526020600020905b8154815290600101906020018083116104da57829003601f168201915b5050505050905061053e565b6040517f08c379a000000000000000000000000000000000000000000000000000000000815260040161053590610cfd565b60405180910390fd5b919050565b6001805461055090610d4c565b80601f016020809104026020016040519081016040528092919081815260200182805461057c90610d4c565b80156105c95780601f1061059e576101008083540402835291602001916105c9565b820191906000526020600020905b8154815290600101906020018083116105ac57829003601f168201915b505050505081565b60008054906101000a900473ffffffffffffffffffffffffffffffffffffffff1681565b606061060082610872565b156107a257600060038054905067ffffffffffffffff81111561062657610625610d7d565b5b60405190808252806020026020018201604052801561065f57816020015b61064c610976565b8152602001906001900390816106445790505b50905060005b6003805490508110156107985760405180604001604052806003838154811061069157610690610dac565b5b9060005260206000200160009054906101000a900473ffffffffffffffffffffffffffffffffffffffff1673ffffffffffffffffffffffffffffffffffffffff16815260200160026000600385815481106106ef576106ee610dac565b5b9060005260206000200160009054906101000a900473ffffffffffffffffffffffffffffffffffffffff1673ffffffffffffffffffffffffffffffffffffffff1673ffffffffffffffffffffffffffffffffffffffff16815260200190815260200160002060009054906101000a900460ff16151581525082828151811061077a57610779610dac565b5b6020026020010181905250808061079090610e14565b915050610665565b50809150506107dd565b6040517f08c379a00000000000000000000000000000000000000000000000000000000081526004016107d490610cfd565b60405180910390fd5b919050565b60008060009054906101000a900473ffffffffffffffffffffffffffffffffffffffff16905090565b6000600260008373ffffffffffffffffffffffffffffffffffffffff1673ffffffffffffffffffffffffffffffffffffffff16815260200190815260200160002060009054906101000a900460ff1615610868576001905061086d565b600090505b919050565b60008173ffffffffffffffffffffffffffffffffffffffff1660008054906101000a900473ffffffffffffffffffffffffffffffffffffffff1673ffffffffffffffffffffffffffffffffffffffff16149050919050565b60008173ffffffffffffffffffffffffffffffffffffffff1660008054906101000a900473ffffffffffffffffffffffffffffffffffffffff1673ffffffffffffffffffffffffffffffffffffffff16148061096f5750600260008373ffffffffffffffffffffffffffffffffffffffff1673ffffffffffffffffffffffffffffffffffffffff16815260200190815260200160002060009054906101000a900460ff165b9050919050565b6040518060400160405280600073ffffffffffffffffffffffffffffffffffffffff1681526020016000151581525090565b600080fd5b600073ffffffffffffffffffffffffffffffffffffffff82169050919050565b60006109d8826109ad565b9050919050565b6109e8816109cd565b81146109f357600080fd5b50565b600081359050610a05816109df565b92915050565b600060208284031215610a2157610a206109a8565b5b6000610a2f848285016109f6565b91505092915050565b60008115159050919050565b610a4d81610a38565b82525050565b6000602082019050610a686000830184610a44565b92915050565b60008060408385031215610a8557610a846109a8565b5b6000610a93858286016109f6565b9250506020610aa4858286016109f6565b9150509250929050565b600081519050919050565b600082825260208201905092915050565b60005b83811015610ae8578082015181840152602081019050610acd565b83811115610af7576000848401525b50505050565b6000601f19601f8301169050919050565b6000610b1982610aae565b610b238185610ab9565b9350610b33818560208601610aca565b610b3c81610afd565b840191505092915050565b60006020820190508181036000830152610b618184610b0e565b905092915050565b610b72816109cd565b82525050565b6000602082019050610b8d6000830184610b69565b92915050565b600081519050919050565b600082825260208201905092915050565b6000819050602082019050919050565b610bc8816109cd565b82525050565b610bd781610a38565b82525050565b604082016000820151610bf36000850182610bbf565b506020820151610c066020850182610bce565b50505050565b6000610c188383610bdd565b60408301905092915050565b6000602082019050919050565b6000610c3c82610b93565b610c468185610b9e565b9350610c5183610baf565b8060005b83811015610c82578151610c698882610c0c565b9750610c7483610c24565b925050600181019050610c55565b5085935050505092915050565b60006020820190508181036000830152610ca98184610c31565b905092915050565b7f6e6f7420617574686f72697a6564000000000000000000000000000000000000600082015250565b6000610ce7600e83610ab9565b9150610cf282610cb1565b602082019050919050565b60006020820190508181036000830152610d1681610cda565b9050919050565b7f4e487b7100000000000000000000000000000000000000000000000000000000600052602260045260246000fd5b60006002820490506001821680610d6457607f821691505b602082108103610d7757610d76610d1d565b5b50919050565b7f4e487b7100000000000000000000000000000000000000000000000000000000600052604160045260246000fd5b7f4e487b7100000000000000000000000000000000000000000000000000000000600052603260045260246000fd5b7f4e487b7100000000000000000000000000000000000000000000000000000000600052601160045260246000fd5b6000819050919050565b6000610e1f82610e0a565b91507fffffffffffffffffffffffffffffffffffffffffffffffffffffffffffffffff8203610e5157610e50610ddb565b5b60018201905091905056fea2646970667358221220f88a73cd4dc4d56bccf487fa2186a6c28d11499cb39185d752865c7ec5ef899d64736f6c634300080f0033",
  "immutableReferences": {},
  "source": "// SPDX-License-Identifier: MIT\npragma solidity >=0.4.22 <0.9.0;\n\ncontract MedicalReport {\n    event AddDetails(string details);\n    event AccessDetails();\n    event GiveAccess(address account);\n    event RevokeAccess(address account);\n\n    address public ownerAddress;\n    string public details;\n    mapping(address => bool) public providers;\n    // mapping(address => bool) private providersDetils;\n\n    address[] private keys;\n\n    function haveAccess(address _account) internal view returns (bool) {\n        return (ownerAddress == _account || providers[_account]);\n    }\n\n    function isOwner(address _provider) internal view returns (bool) {\n        return (ownerAddress == _provider);\n    }\n\n    constructor(string memory details_, address sender_) {\n        ownerAddress = sender_;\n        _addDetails(details_);\n    }\n\n    function _addDetails(string memory _details) internal {\n        details = _details;\n        emit AddDetails(_details);\n    }\n\n    function _verifyAccess(address _account) external view returns (bool) {\n        if (providers[_account]) {\n            return true;\n        } else {\n            return false;\n        }\n    }\n\n    function _accessDetails(address sender)\n        external\n        view\n        returns (string memory)\n    {\n        if (haveAccess(sender)) {\n            return details;\n        }\n        revert(\"not authorized\");\n    }\n\n    function _getOwner() external view returns (address) {\n        return ownerAddress;\n    }\n\n    function _giveAccess(address _owner, address _account)\n        external\n        returns (string memory)\n    {\n        if (isOwner(_owner)) {\n            providers[_account] = true;\n            keys.push(_account);\n            return \"done\";\n        } else {\n            revert(\"not authorized\");\n        }\n    }\n\n    function _revokeAccess(address _owner, address _account)\n        external\n        returns (string memory)\n    {\n        if (isOwner(_owner)) {\n            providers[_account] = false;\n            return \"done\";\n        } else {\n            revert(\"not authorized\");\n        }\n    }\n\n    function _allProvider(address _owner)\n        external\n        view\n        returns (providerAll[] memory)\n    {\n        if (isOwner(_owner)) {\n            providerAll[] memory allProviderDetails = new providerAll[](\n                keys.length\n            );\n            for (uint256 i = 0; i < keys.length; i++) {\n                allProviderDetails[i] = providerAll(\n                    keys[i],\n                    providers[keys[i]]\n                );\n            }\n            return allProviderDetails;\n        }\n        revert(\"not authorized\");\n    }\n}\n\nstruct providerAll {\n    address providerAdd;\n    bool premission;\n}\n\ncontract User {\n    event UnqIdGen();\n\n    address public ownerAddress;\n    uint256 private unqId;\n\n    constructor() {\n        ownerAddress = msg.sender;\n        unqId = 0;\n    }\n\n    function _unqIdGen() internal {\n        unqId++;\n        emit UnqIdGen();\n    }\n\n    MedicalReport[] public _medicalReport;\n\n    function _addMedicalReport(string memory _details) external {\n        _medicalReport.push(new MedicalReport(_details, ownerAddress));\n        _unqIdGen();\n    }\n\n    function _getDetails(uint256 _id) public view returns (string memory) {\n        return _medicalReport[_id]._accessDetails(msg.sender);\n    }\n\n    function _getOwner(uint256 _id) external view returns (address) {\n        return _medicalReport[_id]._getOwner();\n    }\n\n    function _giveAccess(uint256 _id, address _account)\n        external\n        returns (string memory)\n    {\n        return _medicalReport[_id]._giveAccess(msg.sender, _account);\n    }\n\n    function _revokeAccess(uint256 _id, address _account)\n        external\n        returns (string memory)\n    {\n        return _medicalReport[_id]._revokeAccess(msg.sender, _account);\n    }\n\n    function _allProvider(uint256 _id)\n        external\n        view\n        returns (providerAll[] memory)\n    {\n        providerAll[] memory allProviderDetails = _medicalReport[_id]\n            ._allProvider(msg.sender);\n        return allProviderDetails;\n    }\n\n    struct report {\n        string details;\n        MedicalReport repAddress;\n    }\n\n    function _allMedicalReport() external view returns (report[] memory) {\n        report[] memory allMedicalReport = new report[](_medicalReport.length);\n        for (uint256 i = 0; i < _medicalReport.length; i++) {\n            MedicalReport repAddress = _medicalReport[i];\n            string memory details = _getDetails(i);\n            allMedicalReport[i] = report({\n                details: details,\n                repAddress: repAddress\n            });\n        }\n        return allMedicalReport;\n    }\n}\n\ncontract Provider {\n    address public ownerAddress;\n\n    mapping(MedicalReport => bool) public haveAccess;\n    MedicalReport[] private keys;\n\n    struct accessReport {\n        MedicalReport _reportId;\n        bool access;\n    }\n\n    constructor() {\n        ownerAddress = msg.sender;\n    }\n\n    function _verifyDetail(MedicalReport _reportId) external returns (bool) {\n        if (_reportId._verifyAccess(msg.sender)) {\n            haveAccess[_reportId] = true;\n            keys.push(_reportId);\n            return true;\n        } else {\n            haveAccess[_reportId] = false;\n            return false;\n        }\n    }\n\n    function _allhaveAccess() external view returns (accessReport[] memory) {\n        accessReport[] memory allAccessReport = new accessReport[](keys.length);\n        for (uint256 i = 0; i < keys.length; i++) {\n            allAccessReport[i] = accessReport(keys[i], haveAccess[keys[i]]);\n        }\n        return allAccessReport;\n    }\n\n    function _getDetails(MedicalReport _reportId)\n        external\n        view\n        returns (string memory)\n    {\n        return _reportId._accessDetails(msg.sender);\n    }\n\n    function _getOwner(MedicalReport _reportId)\n        external\n        view\n        returns (address)\n    {\n        return _reportId._getOwner();\n    }\n}\n",
  "sourcePath": "/home/bivas/Desktop/speedrun---solidity-todolist/backend/contracts/TaskContract.sol",
  "compiler": {
    "name": "solc",
    "version": "0.8.15+commit.e14f2714.Emscripten.clang"
  },
  "schemaVersion": "3.4.9",
  "updatedAt": "2022-08-20T19:06:17.410Z",
  "networkType": "ethereum",
  "devdoc": {
    "kind": "dev",
    "methods": {},
    "version": 1
  },
  "userdoc": {
    "kind": "user",
    "methods": {},
    "version": 1
  }
}