{
  "contractName": "Provider",
  "abi": [
    {
      "inputs": [],
      "stateMutability": "nonpayable",
      "type": "constructor"
    },
    {
      "inputs": [
        {
          "internalType": "contract MedicalReport",
          "name": "_reportId",
          "type": "address"
        }
      ],
      "name": "_verifyDetail",
      "outputs": [
        {
          "internalType": "string",
          "name": "",
          "type": "string"
        }
      ],
      "stateMutability": "nonpayable",
      "type": "function"
    },
    {
      "inputs": [],
      "name": "_allhaveAccess",
      "outputs": [
        {
          "components": [
            {
              "internalType": "contract MedicalReport",
              "name": "_reportId",
              "type": "address"
            },
            {
              "internalType": "bool",
              "name": "access",
              "type": "bool"
            }
          ],
          "internalType": "struct Provider.accessReport[]",
          "name": "",
          "type": "tuple[]"
        }
      ],
      "stateMutability": "view",
      "type": "function"
    },
    {
      "inputs": [
        {
          "internalType": "contract MedicalReport",
          "name": "_reportId",
          "type": "address"
        }
      ],
      "name": "_removeReport",
      "outputs": [],
      "stateMutability": "nonpayable",
      "type": "function"
    },
    {
      "inputs": [
        {
          "internalType": "contract MedicalReport",
          "name": "_reportId",
          "type": "address"
        }
      ],
      "name": "_getDetails",
      "outputs": [
        {
          "internalType": "string",
          "name": "",
          "type": "string"
        }
      ],
      "stateMutability": "view",
      "type": "function"
    },
    {
      "inputs": [
        {
          "internalType": "contract MedicalReport",
          "name": "_reportId",
          "type": "address"
        }
      ],
      "name": "_getOwner",
      "outputs": [
        {
          "internalType": "address",
          "name": "",
          "type": "address"
        }
      ],
      "stateMutability": "view",
      "type": "function"
    }
  ],
  "bytecode": "0x608060405234801561001057600080fd5b50336000806101000a81548173ffffffffffffffffffffffffffffffffffffffff021916908373ffffffffffffffffffffffffffffffffffffffff16021790555061107c806100606000396000f3fe608060405234801561001057600080fd5b50600436106100575760003560e01c806314be82601461005c578063496bfd011461008c57806382c18a5f146100bc578063b1cc3523146100d8578063e3620dad14610108575b600080fd5b61007660048036038101906100719190610906565b610126565b6040516100839190610942565b60405180910390f35b6100a660048036038101906100a19190610906565b61019e565b6040516100b391906109f6565b60405180910390f35b6100d660048036038101906100d19190610906565b610226565b005b6100f260048036038101906100ed9190610906565b6102a7565b6040516100ff91906109f6565b60405180910390f35b610110610484565b60405161011d9190610b70565b60405180910390f35b60008173ffffffffffffffffffffffffffffffffffffffff1663f7e6af806040518163ffffffff1660e01b8152600401602060405180830381865afa158015610173573d6000803e3d6000fd5b505050506040513d601f19601f820116820180604052508101906101979190610bbe565b9050919050565b60608173ffffffffffffffffffffffffffffffffffffffff16635477c849336040518263ffffffff1660e01b81526004016101d99190610942565b600060405180830381865afa1580156101f6573d6000803e3d6000fd5b505050506040513d6000823e3d601f19601f8201168201806040525081019061021f9190610d11565b9050919050565b600061023182610550565b90507fffffffffffffffffffffffffffffffffffffffffffffffffffffffffffffffff8114610269576102638161061f565b506102a4565b6040517f08c379a000000000000000000000000000000000000000000000000000000000815260040161029b90610da6565b60405180910390fd5b50565b60608173ffffffffffffffffffffffffffffffffffffffff1663fcc9b926336040518263ffffffff1660e01b81526004016102e29190610942565b602060405180830381865afa1580156102ff573d6000803e3d6000fd5b505050506040513d601f19601f820116820180604052508101906103239190610df2565b156104045761033182610794565b6103f457600160405180604001604052808473ffffffffffffffffffffffffffffffffffffffff168152602001600115158152509080600181540180825580915050600190039060005260206000200160009091909190915060008201518160000160006101000a81548173ffffffffffffffffffffffffffffffffffffffff021916908373ffffffffffffffffffffffffffffffffffffffff16021790555060208201518160000160146101000a81548160ff02191690831515021790555050505b6103fd8261019e565b905061047f565b600061040f83610550565b90507fffffffffffffffffffffffffffffffffffffffffffffffffffffffffffffffff811461044457610443816000610845565b5b6040517f08c379a000000000000000000000000000000000000000000000000000000000815260040161047690610e6b565b60405180910390fd5b919050565b60606001805480602002602001604051908101604052809291908181526020016000905b82821015610547578382906000526020600020016040518060400160405290816000820160009054906101000a900473ffffffffffffffffffffffffffffffffffffffff1673ffffffffffffffffffffffffffffffffffffffff1673ffffffffffffffffffffffffffffffffffffffff1681526020016000820160149054906101000a900460ff161515151581525050815260200190600101906104a8565b50505050905090565b600080600090505b6001805490508112156105f5578273ffffffffffffffffffffffffffffffffffffffff16600182815481106105905761058f610e8b565b5b9060005260206000200160000160009054906101000a900473ffffffffffffffffffffffffffffffffffffffff1673ffffffffffffffffffffffffffffffffffffffff16036105e2578091505061061a565b80806105ed90610ef3565b915050610558565b507fffffffffffffffffffffffffffffffffffffffffffffffffffffffffffffffff90505b919050565b60008190505b600180805490506106369190610f45565b81101561072e576001808261064b9190610f79565b8154811061065c5761065b610e8b565b5b906000526020600020016001828154811061067a57610679610e8b565b5b906000526020600020016000820160009054906101000a900473ffffffffffffffffffffffffffffffffffffffff168160000160006101000a81548173ffffffffffffffffffffffffffffffffffffffff021916908373ffffffffffffffffffffffffffffffffffffffff1602179055506000820160149054906101000a900460ff168160000160146101000a81548160ff021916908315150217905550905050808061072690610fcf565b915050610625565b50600180548061074157610740611017565b5b60019003818190600052602060002001600080820160006101000a81549073ffffffffffffffffffffffffffffffffffffffff02191690556000820160146101000a81549060ff02191690555050905550565b600080600090505b60018054905081101561083a578273ffffffffffffffffffffffffffffffffffffffff16600182815481106107d4576107d3610e8b565b5b9060005260206000200160000160009054906101000a900473ffffffffffffffffffffffffffffffffffffffff1673ffffffffffffffffffffffffffffffffffffffff1603610827576001915050610840565b808061083290610fcf565b91505061079c565b50600090505b919050565b806001838154811061085a57610859610e8b565b5b9060005260206000200160000160146101000a81548160ff0219169083151502179055505050565b6000604051905090565b600080fd5b600080fd5b600073ffffffffffffffffffffffffffffffffffffffff82169050919050565b60006108c182610896565b9050919050565b60006108d3826108b6565b9050919050565b6108e3816108c8565b81146108ee57600080fd5b50565b600081359050610900816108da565b92915050565b60006020828403121561091c5761091b61088c565b5b600061092a848285016108f1565b91505092915050565b61093c816108b6565b82525050565b60006020820190506109576000830184610933565b92915050565b600081519050919050565b600082825260208201905092915050565b60005b8381101561099757808201518184015260208101905061097c565b838111156109a6576000848401525b50505050565b6000601f19601f8301169050919050565b60006109c88261095d565b6109d28185610968565b93506109e2818560208601610979565b6109eb816109ac565b840191505092915050565b60006020820190508181036000830152610a1081846109bd565b905092915050565b600081519050919050565b600082825260208201905092915050565b6000819050602082019050919050565b6000819050919050565b6000610a69610a64610a5f84610896565b610a44565b610896565b9050919050565b6000610a7b82610a4e565b9050919050565b6000610a8d82610a70565b9050919050565b610a9d81610a82565b82525050565b60008115159050919050565b610ab881610aa3565b82525050565b604082016000820151610ad46000850182610a94565b506020820151610ae76020850182610aaf565b50505050565b6000610af98383610abe565b60408301905092915050565b6000602082019050919050565b6000610b1d82610a18565b610b278185610a23565b9350610b3283610a34565b8060005b83811015610b63578151610b4a8882610aed565b9750610b5583610b05565b925050600181019050610b36565b5085935050505092915050565b60006020820190508181036000830152610b8a8184610b12565b905092915050565b610b9b816108b6565b8114610ba657600080fd5b50565b600081519050610bb881610b92565b92915050565b600060208284031215610bd457610bd361088c565b5b6000610be284828501610ba9565b91505092915050565b600080fd5b600080fd5b7f4e487b7100000000000000000000000000000000000000000000000000000000600052604160045260246000fd5b610c2d826109ac565b810181811067ffffffffffffffff82111715610c4c57610c4b610bf5565b5b80604052505050565b6000610c5f610882565b9050610c6b8282610c24565b919050565b600067ffffffffffffffff821115610c8b57610c8a610bf5565b5b610c94826109ac565b9050602081019050919050565b6000610cb4610caf84610c70565b610c55565b905082815260208101848484011115610cd057610ccf610bf0565b5b610cdb848285610979565b509392505050565b600082601f830112610cf857610cf7610beb565b5b8151610d08848260208601610ca1565b91505092915050565b600060208284031215610d2757610d2661088c565b5b600082015167ffffffffffffffff811115610d4557610d44610891565b5b610d5184828501610ce3565b91505092915050565b7f7265706f727420646f6573206e6f742065786973742100000000000000000000600082015250565b6000610d90601683610968565b9150610d9b82610d5a565b602082019050919050565b60006020820190508181036000830152610dbf81610d83565b9050919050565b610dcf81610aa3565b8114610dda57600080fd5b50565b600081519050610dec81610dc6565b92915050565b600060208284031215610e0857610e0761088c565b5b6000610e1684828501610ddd565b91505092915050565b7f6e6f7420617574686f72697a6564000000000000000000000000000000000000600082015250565b6000610e55600e83610968565b9150610e6082610e1f565b602082019050919050565b60006020820190508181036000830152610e8481610e48565b9050919050565b7f4e487b7100000000000000000000000000000000000000000000000000000000600052603260045260246000fd5b7f4e487b7100000000000000000000000000000000000000000000000000000000600052601160045260246000fd5b6000819050919050565b6000610efe82610ee9565b91507f7fffffffffffffffffffffffffffffffffffffffffffffffffffffffffffffff8203610f3057610f2f610eba565b5b600182019050919050565b6000819050919050565b6000610f5082610f3b565b9150610f5b83610f3b565b925082821015610f6e57610f6d610eba565b5b828203905092915050565b6000610f8482610f3b565b9150610f8f83610f3b565b9250827fffffffffffffffffffffffffffffffffffffffffffffffffffffffffffffffff03821115610fc457610fc3610eba565b5b828201905092915050565b6000610fda82610f3b565b91507fffffffffffffffffffffffffffffffffffffffffffffffffffffffffffffffff820361100c5761100b610eba565b5b600182019050919050565b7f4e487b7100000000000000000000000000000000000000000000000000000000600052603160045260246000fdfea2646970667358221220bc70b10eb22695944803e017b4557e5ab35a811bfd0944b83c0ce0dfcecfe27864736f6c634300080f0033",
  "immutableReferences": {},
  "source": "// SPDX-License-Identifier: MIT\npragma solidity >=0.4.22 <0.9.0;\n\n\ncontract MedicalReport{\n    event AddDetails(string details);\n    event AccessDetails();\n    event GiveAccess(address account);\n    event RevokeAccess(address account);\n\n    address public ownerAddress;\n    string public details;\n    mapping(address => bool) public providers;\n\n    address[] private keys;\n\n\n    function _hasAccess(address _account) view public returns(bool) {\n        return (ownerAddress == _account || providers[_account]);\n    }\n\n    function isOwner(address _provider) view internal returns(bool) {\n        return (ownerAddress == _provider);\n    }\n\n    constructor(string memory details_, address sender_){\n        ownerAddress = sender_;\n        _addDetails(details_);\n    }\n\n    function _addDetails(string memory _details) internal{\n        details = _details;\n        emit AddDetails(_details);\n    }\n\n    function _verifyAccess(address _account) external view returns(bool){\n        if(providers[_account]){\n            return true;\n        } else{\n            return false;\n        }\n    }\n\n    function _accessDetails(address sender) external view returns(string memory){\n        if(_hasAccess(sender)){\n            return details;\n        }\n        revert(\"not authorized\");\n    }\n\n    function _getOwner() external view returns(address){\n        return ownerAddress;\n    }\n\n    function _giveAccess(address _owner, address _account) external returns(string memory){\n        if(isOwner(_owner)){\n            if(!providers[_account]){\n                providers[_account] = true;\n                keys.push(_account);\n                return \"done\";\n            }\n            return \"already exist\";\n        } else{\n            revert(\"not authorized\");\n        }\n    }\n\n    function _revokeAccess(address _owner, address _account) external returns(string memory){\n        if(isOwner(_owner)){\n            providers[_account] = false;\n            return \"done\";\n        } else{\n            revert(\"not authorized\");\n        }\n    }\n\n    function _allProvider(address _owner) external view returns(providerAll[] memory){\n        if(isOwner(_owner)){\n            providerAll[] memory allProviderDetails = new providerAll[](keys.length);\n            for(uint i=0; i < keys.length; i++ ){\n                allProviderDetails[i] = providerAll(keys[i], providers[keys[i]]);\n            }\n            return allProviderDetails;\n        }\n        revert(\"not authorized\");\n    }\n}\n\n    struct providerAll{\n        address providerAdd;\n        bool premission;\n    }\n\ncontract User {\n    event UnqIdGen();\n\n    struct report{\n        string details;\n        MedicalReport repAddress;\n    }\n\n    address public ownerAddress;\n    uint private unqId;\n\n    constructor(){\n        ownerAddress = msg.sender;\n        unqId= 0;\n    }\n\n    MedicalReport[] public _medicalReport;\n\n    function _unqIdGen() internal{\n        unqId ++;\n        emit UnqIdGen();\n    }\n\n    function _addMedicalReport(string memory _details) external{\n        _medicalReport.push(new MedicalReport(_details, msg.sender));\n        _unqIdGen();\n    }\n\n    function _getDetails(uint _id) public view returns(string memory){\n        return _medicalReport[_id]._accessDetails(msg.sender);\n    }\n\n    function _getOwner(uint _id) internal view returns(address){\n        return _medicalReport[_id]._getOwner();\n    }\n\n    function _giveAccess(uint _id, address _account) external returns(string memory){\n        return _medicalReport[_id]._giveAccess(msg.sender, _account);\n    }\n\n    function _revokeAccess(uint _id, address _account) external returns(string memory){\n        return _medicalReport[_id]._revokeAccess(msg.sender, _account);\n    }\n\n    function _allProvider(uint _id) external view returns(providerAll[] memory){\n        providerAll[] memory allProviderDetails = _medicalReport[_id]._allProvider(msg.sender);\n        return allProviderDetails;\n    }\n\n    function _allMedicalReport() external view returns(report[] memory){\n        report[] memory allMedicalReport = new report[](_medicalReport.length);\n        for(uint i=0; i < _medicalReport.length; i++ ){\n            MedicalReport repAddress = _medicalReport[i];\n            string memory details = _getDetails(i);\n            allMedicalReport[i] = report({details:details , repAddress: repAddress});\n        }\n        return allMedicalReport;\n    }\n\n    function _removeEle(uint _index) internal {\n        for(uint i = _index; i < _medicalReport.length-1; i++){\n            _medicalReport[i] = _medicalReport[i+1];\n        }\n        _medicalReport.pop();\n    }\n\n    function _removeMedicalReport(uint _id) external {\n        if(msg.sender == _getOwner(_id)){\n            _removeEle(_id);\n        } else{\n            revert(\"not authorized\");\n        }\n    }\n\n}\n\ncontract Provider {\n    address internal ownerAddress;\n\n    struct accessReport{\n        MedicalReport _reportId;\n        bool access;\n    }\n\n    accessReport[] internal allAccessReport;\n\n    MedicalReport[] internal keys;\n\n    constructor(){\n        ownerAddress = msg.sender;\n    }\n\n    function _existsEle(MedicalReport _reportId) internal view returns (bool) {\n        for (uint i = 0; i < allAccessReport.length; i++) {\n            if (allAccessReport[i]._reportId == _reportId) {\n                return true;\n            }\n        }\n        return false;\n    }\n\n    function _removeEle(uint _index) internal {\n        for(uint i = _index; i < allAccessReport.length-1; i++){\n            allAccessReport[i] = allAccessReport[i+1];\n        }\n        allAccessReport.pop();\n    }\n\n    function _updateEle(uint _index, bool _access) internal {\n        allAccessReport[_index].access = _access;\n    }\n\n    function _queryIndex(MedicalReport _reportId) internal view returns (int) {\n        for (int i = 0; i < int(allAccessReport.length); i++) {\n            if (allAccessReport[uint256(i)]._reportId == _reportId) {\n                return i;\n            }\n        }\n        return -1;\n    }\n\n    function _verifyDetail(MedicalReport _reportId) external returns(string memory){\n        if(_reportId._verifyAccess(msg.sender)){\n            if(!_existsEle(_reportId)){\n                allAccessReport.push(accessReport({_reportId:_reportId, access: true}));\n            }\n            return _getDetails(_reportId);\n        } else{\n            int idx = _queryIndex(_reportId);\n            if(idx != -1){\n                _updateEle(uint(idx), false);\n            }\n            revert(\"not authorized\");\n        }\n    }\n\n    function _allhaveAccess() external view returns(accessReport[] memory){\n        return allAccessReport;\n    }\n\n    function _removeReport(MedicalReport _reportId) external{\n        int idx = _queryIndex(_reportId);\n        if(idx != -1){\n            _removeEle(uint(idx));\n            return;\n        }\n        revert(\"report does not exist!\");\n    }\n\n    function _getDetails(MedicalReport _reportId) public view returns(string memory){\n        return _reportId._accessDetails(msg.sender);\n    }\n\n    function _getOwner(MedicalReport _reportId) external view returns(address){\n        return _reportId._getOwner();\n    }\n}",
  "sourcePath": "/home/bivas/Desktop/medical-data-privacy-using-blockchain/backend/contracts/MedReportMannageMent.sol",
  "compiler": {
    "name": "solc",
    "version": "0.8.15+commit.e14f2714.Emscripten.clang"
  },
  "schemaVersion": "3.4.9",
  "updatedAt": "2022-08-22T11:38:12.551Z",
  "devdoc": {
    "kind": "dev",
    "methods": {},
    "version": 1
  },
  "userdoc": {
    "kind": "user",
    "methods": {},
    "version": 1
  }
}