{
  "contractName": "Provider",
  "abi": [
    {
      "inputs": [],
      "stateMutability": "nonpayable",
      "type": "constructor"
    },
    {
      "inputs": [
        {
          "internalType": "contract MedicalReport",
          "name": "",
          "type": "address"
        }
      ],
      "name": "haveAccess",
      "outputs": [
        {
          "internalType": "bool",
          "name": "",
          "type": "bool"
        }
      ],
      "stateMutability": "view",
      "type": "function",
      "constant": true
    },
    {
      "inputs": [],
      "name": "ownerAddress",
      "outputs": [
        {
          "internalType": "address",
          "name": "",
          "type": "address"
        }
      ],
      "stateMutability": "view",
      "type": "function",
      "constant": true
    },
    {
      "inputs": [
        {
          "internalType": "contract MedicalReport",
          "name": "_reportId",
          "type": "address"
        }
      ],
      "name": "_verifyDetail",
      "outputs": [
        {
          "internalType": "bool",
          "name": "",
          "type": "bool"
        }
      ],
      "stateMutability": "nonpayable",
      "type": "function"
    },
    {
      "inputs": [],
      "name": "_allhaveAccess",
      "outputs": [
        {
          "components": [
            {
              "internalType": "contract MedicalReport",
              "name": "_reportId",
              "type": "address"
            },
            {
              "internalType": "bool",
              "name": "access",
              "type": "bool"
            }
          ],
          "internalType": "struct Provider.accessReport[]",
          "name": "",
          "type": "tuple[]"
        }
      ],
      "stateMutability": "view",
      "type": "function",
      "constant": true
    },
    {
      "inputs": [
        {
          "internalType": "contract MedicalReport",
          "name": "_reportId",
          "type": "address"
        }
      ],
      "name": "_getDetails",
      "outputs": [
        {
          "internalType": "string",
          "name": "",
          "type": "string"
        }
      ],
      "stateMutability": "view",
      "type": "function",
      "constant": true
    },
    {
      "inputs": [
        {
          "internalType": "contract MedicalReport",
          "name": "_reportId",
          "type": "address"
        }
      ],
      "name": "_getOwner",
      "outputs": [
        {
          "internalType": "address",
          "name": "",
          "type": "address"
        }
      ],
      "stateMutability": "view",
      "type": "function",
      "constant": true
    }
  ],
  "bytecode": "0x608060405234801561001057600080fd5b50336000806101000a81548173ffffffffffffffffffffffffffffffffffffffff021916908373ffffffffffffffffffffffffffffffffffffffff160217905550610c5d806100606000396000f3fe608060405234801561001057600080fd5b50600436106100625760003560e01c806314be826014610067578063496bfd0114610097578063701a31fc146100c75780638f84aa09146100f7578063b1cc352314610115578063e3620dad14610145575b600080fd5b610081600480360381019061007c91906106a0565b610163565b60405161008e91906106dc565b60405180910390f35b6100b160048036038101906100ac91906106a0565b6101db565b6040516100be9190610790565b60405180910390f35b6100e160048036038101906100dc91906106a0565b610263565b6040516100ee91906107cd565b60405180910390f35b6100ff610283565b60405161010c91906106dc565b60405180910390f35b61012f600480360381019061012a91906106a0565b6102a7565b60405161013c91906107cd565b60405180910390f35b61014d61044d565b60405161015a9190610934565b60405180910390f35b60008173ffffffffffffffffffffffffffffffffffffffff1663f7e6af806040518163ffffffff1660e01b8152600401602060405180830381865afa1580156101b0573d6000803e3d6000fd5b505050506040513d601f19601f820116820180604052508101906101d49190610982565b9050919050565b60608173ffffffffffffffffffffffffffffffffffffffff16635477c849336040518263ffffffff1660e01b815260040161021691906106dc565b600060405180830381865afa158015610233573d6000803e3d6000fd5b505050506040513d6000823e3d601f19601f8201168201806040525081019061025c9190610ad5565b9050919050565b60016020528060005260406000206000915054906101000a900460ff1681565b60008054906101000a900473ffffffffffffffffffffffffffffffffffffffff1681565b60008173ffffffffffffffffffffffffffffffffffffffff1663fcc9b926336040518263ffffffff1660e01b81526004016102e291906106dc565b602060405180830381865afa1580156102ff573d6000803e3d6000fd5b505050506040513d601f19601f820116820180604052508101906103239190610b4a565b156103eb5760018060008473ffffffffffffffffffffffffffffffffffffffff1673ffffffffffffffffffffffffffffffffffffffff16815260200190815260200160002060006101000a81548160ff0219169083151502179055506002829080600181540180825580915050600190039060005260206000200160009091909190916101000a81548173ffffffffffffffffffffffffffffffffffffffff021916908373ffffffffffffffffffffffffffffffffffffffff16021790555060019050610448565b6000600160008473ffffffffffffffffffffffffffffffffffffffff1673ffffffffffffffffffffffffffffffffffffffff16815260200190815260200160002060006101000a81548160ff021916908315150217905550600090505b919050565b6060600060028054905067ffffffffffffffff8111156104705761046f6109b9565b5b6040519080825280602002602001820160405280156104a957816020015b6104966105ea565b81526020019060019003908161048e5790505b50905060005b6002805490508110156105e2576040518060400160405280600283815481106104db576104da610b77565b5b9060005260206000200160009054906101000a900473ffffffffffffffffffffffffffffffffffffffff1673ffffffffffffffffffffffffffffffffffffffff168152602001600160006002858154811061053957610538610b77565b5b9060005260206000200160009054906101000a900473ffffffffffffffffffffffffffffffffffffffff1673ffffffffffffffffffffffffffffffffffffffff1673ffffffffffffffffffffffffffffffffffffffff16815260200190815260200160002060009054906101000a900460ff1615158152508282815181106105c4576105c3610b77565b5b602002602001018190525080806105da90610bdf565b9150506104af565b508091505090565b6040518060400160405280600073ffffffffffffffffffffffffffffffffffffffff1681526020016000151581525090565b6000604051905090565b600080fd5b600080fd5b600073ffffffffffffffffffffffffffffffffffffffff82169050919050565b600061065b82610630565b9050919050565b600061066d82610650565b9050919050565b61067d81610662565b811461068857600080fd5b50565b60008135905061069a81610674565b92915050565b6000602082840312156106b6576106b5610626565b5b60006106c48482850161068b565b91505092915050565b6106d681610650565b82525050565b60006020820190506106f160008301846106cd565b92915050565b600081519050919050565b600082825260208201905092915050565b60005b83811015610731578082015181840152602081019050610716565b83811115610740576000848401525b50505050565b6000601f19601f8301169050919050565b6000610762826106f7565b61076c8185610702565b935061077c818560208601610713565b61078581610746565b840191505092915050565b600060208201905081810360008301526107aa8184610757565b905092915050565b60008115159050919050565b6107c7816107b2565b82525050565b60006020820190506107e260008301846107be565b92915050565b600081519050919050565b600082825260208201905092915050565b6000819050602082019050919050565b6000819050919050565b600061083961083461082f84610630565b610814565b610630565b9050919050565b600061084b8261081e565b9050919050565b600061085d82610840565b9050919050565b61086d81610852565b82525050565b61087c816107b2565b82525050565b6040820160008201516108986000850182610864565b5060208201516108ab6020850182610873565b50505050565b60006108bd8383610882565b60408301905092915050565b6000602082019050919050565b60006108e1826107e8565b6108eb81856107f3565b93506108f683610804565b8060005b8381101561092757815161090e88826108b1565b9750610919836108c9565b9250506001810190506108fa565b5085935050505092915050565b6000602082019050818103600083015261094e81846108d6565b905092915050565b61095f81610650565b811461096a57600080fd5b50565b60008151905061097c81610956565b92915050565b60006020828403121561099857610997610626565b5b60006109a68482850161096d565b91505092915050565b600080fd5b600080fd5b7f4e487b7100000000000000000000000000000000000000000000000000000000600052604160045260246000fd5b6109f182610746565b810181811067ffffffffffffffff82111715610a1057610a0f6109b9565b5b80604052505050565b6000610a2361061c565b9050610a2f82826109e8565b919050565b600067ffffffffffffffff821115610a4f57610a4e6109b9565b5b610a5882610746565b9050602081019050919050565b6000610a78610a7384610a34565b610a19565b905082815260208101848484011115610a9457610a936109b4565b5b610a9f848285610713565b509392505050565b600082601f830112610abc57610abb6109af565b5b8151610acc848260208601610a65565b91505092915050565b600060208284031215610aeb57610aea610626565b5b600082015167ffffffffffffffff811115610b0957610b0861062b565b5b610b1584828501610aa7565b91505092915050565b610b27816107b2565b8114610b3257600080fd5b50565b600081519050610b4481610b1e565b92915050565b600060208284031215610b6057610b5f610626565b5b6000610b6e84828501610b35565b91505092915050565b7f4e487b7100000000000000000000000000000000000000000000000000000000600052603260045260246000fd5b7f4e487b7100000000000000000000000000000000000000000000000000000000600052601160045260246000fd5b6000819050919050565b6000610bea82610bd5565b91507fffffffffffffffffffffffffffffffffffffffffffffffffffffffffffffffff8203610c1c57610c1b610ba6565b5b60018201905091905056fea26469706673582212205b150bb709641caa3b2e41c9b1ea329a5451eb64817e53e90a119c3b72d44eb364736f6c634300080f0033",
  "immutableReferences": {},
  "source": "// SPDX-License-Identifier: MIT\npragma solidity >=0.4.22 <0.9.0;\n\ncontract MedicalReport {\n    event AddDetails(string details);\n    event AccessDetails();\n    event GiveAccess(address account);\n    event RevokeAccess(address account);\n\n    address public ownerAddress;\n    string public details;\n    mapping(address => bool) public providers;\n    // mapping(address => bool) private providersDetils;\n\n    address[] private keys;\n\n    function haveAccess(address _account) internal view returns (bool) {\n        return (ownerAddress == _account || providers[_account]);\n    }\n\n    function isOwner(address _provider) internal view returns (bool) {\n        return (ownerAddress == _provider);\n    }\n\n    constructor(string memory details_, address sender_) {\n        ownerAddress = sender_;\n        _addDetails(details_);\n    }\n\n    function _addDetails(string memory _details) internal {\n        details = _details;\n        emit AddDetails(_details);\n    }\n\n    function _verifyAccess(address _account) external view returns (bool) {\n        if (providers[_account]) {\n            return true;\n        } else {\n            return false;\n        }\n    }\n\n    function _accessDetails(address sender)\n        external\n        view\n        returns (string memory)\n    {\n        if (haveAccess(sender)) {\n            return details;\n        }\n        revert(\"not authorized\");\n    }\n\n    function _getOwner() external view returns (address) {\n        return ownerAddress;\n    }\n\n    function _giveAccess(address _owner, address _account)\n        external\n        returns (string memory)\n    {\n        if (isOwner(_owner)) {\n            providers[_account] = true;\n            keys.push(_account);\n            return \"done\";\n        } else {\n            revert(\"not authorized\");\n        }\n    }\n\n    function _revokeAccess(address _owner, address _account)\n        external\n        returns (string memory)\n    {\n        if (isOwner(_owner)) {\n            providers[_account] = false;\n            return \"done\";\n        } else {\n            revert(\"not authorized\");\n        }\n    }\n\n    function _allProvider(address _owner)\n        external\n        view\n        returns (providerAll[] memory)\n    {\n        if (isOwner(_owner)) {\n            providerAll[] memory allProviderDetails = new providerAll[](\n                keys.length\n            );\n            for (uint256 i = 0; i < keys.length; i++) {\n                allProviderDetails[i] = providerAll(\n                    keys[i],\n                    providers[keys[i]]\n                );\n            }\n            return allProviderDetails;\n        }\n        revert(\"not authorized\");\n    }\n}\n\nstruct providerAll {\n    address providerAdd;\n    bool premission;\n}\n\ncontract User {\n    event UnqIdGen();\n\n    address public ownerAddress;\n    uint256 private unqId;\n\n    constructor() {\n        ownerAddress = msg.sender;\n        unqId = 0;\n    }\n\n    function _unqIdGen() internal {\n        unqId++;\n        emit UnqIdGen();\n    }\n\n    MedicalReport[] public _medicalReport;\n\n    function _addMedicalReport(string memory _details) external {\n        _medicalReport.push(new MedicalReport(_details, ownerAddress));\n        _unqIdGen();\n    }\n\n    function _getDetails(uint256 _id) public view returns (string memory) {\n        return _medicalReport[_id]._accessDetails(msg.sender);\n    }\n\n    function _getOwner(uint256 _id) external view returns (address) {\n        return _medicalReport[_id]._getOwner();\n    }\n\n    function _giveAccess(uint256 _id, address _account)\n        external\n        returns (string memory)\n    {\n        return _medicalReport[_id]._giveAccess(msg.sender, _account);\n    }\n\n    function _revokeAccess(uint256 _id, address _account)\n        external\n        returns (string memory)\n    {\n        return _medicalReport[_id]._revokeAccess(msg.sender, _account);\n    }\n\n    function _allProvider(uint256 _id)\n        external\n        view\n        returns (providerAll[] memory)\n    {\n        providerAll[] memory allProviderDetails = _medicalReport[_id]\n            ._allProvider(msg.sender);\n        return allProviderDetails;\n    }\n\n    struct report {\n        string details;\n        MedicalReport repAddress;\n    }\n\n    function _allMedicalReport() external view returns (report[] memory) {\n        report[] memory allMedicalReport = new report[](_medicalReport.length);\n        for (uint256 i = 0; i < _medicalReport.length; i++) {\n            MedicalReport repAddress = _medicalReport[i];\n            string memory details = _getDetails(i);\n            allMedicalReport[i] = report({\n                details: details,\n                repAddress: repAddress\n            });\n        }\n        return allMedicalReport;\n    }\n}\n\ncontract Provider {\n    address public ownerAddress;\n\n    mapping(MedicalReport => bool) public haveAccess;\n    MedicalReport[] private keys;\n\n    struct accessReport {\n        MedicalReport _reportId;\n        bool access;\n    }\n\n    constructor() {\n        ownerAddress = msg.sender;\n    }\n\n    function _verifyDetail(MedicalReport _reportId) external returns (bool) {\n        if (_reportId._verifyAccess(msg.sender)) {\n            haveAccess[_reportId] = true;\n            keys.push(_reportId);\n            return true;\n        } else {\n            haveAccess[_reportId] = false;\n            return false;\n        }\n    }\n\n    function _allhaveAccess() external view returns (accessReport[] memory) {\n        accessReport[] memory allAccessReport = new accessReport[](keys.length);\n        for (uint256 i = 0; i < keys.length; i++) {\n            allAccessReport[i] = accessReport(keys[i], haveAccess[keys[i]]);\n        }\n        return allAccessReport;\n    }\n\n    function _getDetails(MedicalReport _reportId)\n        external\n        view\n        returns (string memory)\n    {\n        return _reportId._accessDetails(msg.sender);\n    }\n\n    function _getOwner(MedicalReport _reportId)\n        external\n        view\n        returns (address)\n    {\n        return _reportId._getOwner();\n    }\n}\n",
  "sourcePath": "/home/bivas/Desktop/speedrun---solidity-todolist/backend/contracts/TaskContract.sol",
  "compiler": {
    "name": "solc",
    "version": "0.8.15+commit.e14f2714.Emscripten.clang"
  },
  "schemaVersion": "3.4.9",
  "updatedAt": "2022-08-20T19:06:17.424Z",
  "networkType": "ethereum",
  "devdoc": {
    "kind": "dev",
    "methods": {},
    "version": 1
  },
  "userdoc": {
    "kind": "user",
    "methods": {},
    "version": 1
  }
}