{
  "contractName": "User",
  "abi": [
    {
      "inputs": [],
      "stateMutability": "nonpayable",
      "type": "constructor"
    },
    {
      "anonymous": false,
      "inputs": [],
      "name": "UnqIdGen",
      "type": "event"
    },
    {
      "inputs": [
        {
          "internalType": "uint256",
          "name": "",
          "type": "uint256"
        }
      ],
      "name": "_medicalReport",
      "outputs": [
        {
          "internalType": "contract MedicalReport",
          "name": "",
          "type": "address"
        }
      ],
      "stateMutability": "view",
      "type": "function",
      "constant": true
    },
    {
      "inputs": [],
      "name": "ownerAddress",
      "outputs": [
        {
          "internalType": "address",
          "name": "",
          "type": "address"
        }
      ],
      "stateMutability": "view",
      "type": "function",
      "constant": true
    },
    {
      "inputs": [
        {
          "internalType": "string",
          "name": "_details",
          "type": "string"
        }
      ],
      "name": "_addMedicalReport",
      "outputs": [],
      "stateMutability": "nonpayable",
      "type": "function"
    },
    {
      "inputs": [
        {
          "internalType": "uint256",
          "name": "_id",
          "type": "uint256"
        }
      ],
      "name": "_getDetails",
      "outputs": [
        {
          "internalType": "string",
          "name": "",
          "type": "string"
        }
      ],
      "stateMutability": "view",
      "type": "function",
      "constant": true
    },
    {
      "inputs": [
        {
          "internalType": "uint256",
          "name": "_id",
          "type": "uint256"
        },
        {
          "internalType": "address",
          "name": "_account",
          "type": "address"
        }
      ],
      "name": "_giveAccess",
      "outputs": [
        {
          "internalType": "string",
          "name": "",
          "type": "string"
        }
      ],
      "stateMutability": "nonpayable",
      "type": "function"
    },
    {
      "inputs": [
        {
          "internalType": "uint256",
          "name": "_id",
          "type": "uint256"
        },
        {
          "internalType": "address",
          "name": "_account",
          "type": "address"
        }
      ],
      "name": "_revokeAccess",
      "outputs": [
        {
          "internalType": "string",
          "name": "",
          "type": "string"
        }
      ],
      "stateMutability": "nonpayable",
      "type": "function"
    },
    {
      "inputs": [
        {
          "internalType": "uint256",
          "name": "_id",
          "type": "uint256"
        }
      ],
      "name": "_allProvider",
      "outputs": [
        {
          "components": [
            {
              "internalType": "address",
              "name": "providerAdd",
              "type": "address"
            },
            {
              "internalType": "bool",
              "name": "premission",
              "type": "bool"
            }
          ],
          "internalType": "struct providerAll[]",
          "name": "",
          "type": "tuple[]"
        }
      ],
      "stateMutability": "view",
      "type": "function",
      "constant": true
    },
    {
      "inputs": [],
      "name": "_allMedicalReport",
      "outputs": [
        {
          "components": [
            {
              "internalType": "string",
              "name": "details",
              "type": "string"
            },
            {
              "internalType": "contract MedicalReport",
              "name": "repAddress",
              "type": "address"
            }
          ],
          "internalType": "struct User.report[]",
          "name": "",
          "type": "tuple[]"
        }
      ],
      "stateMutability": "view",
      "type": "function",
      "constant": true
    },
    {
      "inputs": [
        {
          "internalType": "uint256",
          "name": "_id",
          "type": "uint256"
        }
      ],
      "name": "_removeMedicalReport",
      "outputs": [],
      "stateMutability": "nonpayable",
      "type": "function"
    }
  ],
  "bytecode": "0x608060405234801561001057600080fd5b50336000806101000a81548173ffffffffffffffffffffffffffffffffffffffff021916908373ffffffffffffffffffffffffffffffffffffffff1602179055506000600181905550612db9806100686000396000f3fe60806040523480156200001157600080fd5b5060043610620000a05760003560e01c80636410453d116200006f5780636410453d14620001535780638f84aa091462000189578063a86bbc8514620001ab578063bcc730ee14620001cb578063da8570ab146200020157620000a0565b80632621564414620000a55780632addd45114620000db5780632b221ac514620000fb57806356cffcac1462000131575b600080fd5b620000c36004803603810190620000bd919062000b9f565b62000237565b604051620000d2919062000c8a565b60405180910390f35b620000f96004803603810190620000f3919062000cae565b6200030a565b005b62000119600480360381019062000113919062000cae565b62000399565b60405162000128919062000c8a565b60405180910390f35b6200013b62000467565b6040516200014a919062000eae565b60405180910390f35b6200017160048036038101906200016b919062000cae565b6200059f565b60405162000180919062000ff0565b60405180910390f35b6200019362000673565b604051620001a2919062001025565b60405180910390f35b620001c96004803603810190620001c3919062001193565b62000697565b005b620001e96004803603810190620001e3919062000cae565b62000761565b604051620001f89190620011f5565b60405180910390f35b6200021f600480360381019062000219919062000b9f565b620007a1565b6040516200022e919062000c8a565b60405180910390f35b60606002838154811062000250576200024f62001212565b5b9060005260206000200160009054906101000a900473ffffffffffffffffffffffffffffffffffffffff1673ffffffffffffffffffffffffffffffffffffffff1663102779a933846040518363ffffffff1660e01b8152600401620002b792919062001241565b6000604051808303816000875af1158015620002d7573d6000803e3d6000fd5b505050506040513d6000823e3d601f19601f82011682018060405250810190620003029190620012ec565b905092915050565b620003158162000874565b73ffffffffffffffffffffffffffffffffffffffff163373ffffffffffffffffffffffffffffffffffffffff16036200035957620003538162000930565b62000396565b6040517f08c379a00000000000000000000000000000000000000000000000000000000081526004016200038d906200138d565b60405180910390fd5b50565b606060028281548110620003b257620003b162001212565b5b9060005260206000200160009054906101000a900473ffffffffffffffffffffffffffffffffffffffff1673ffffffffffffffffffffffffffffffffffffffff16635477c849336040518263ffffffff1660e01b815260040162000417919062001025565b600060405180830381865afa15801562000435573d6000803e3d6000fd5b505050506040513d6000823e3d601f19601f82011682018060405250810190620004609190620012ec565b9050919050565b6060600060028054905067ffffffffffffffff8111156200048d576200048c6200104c565b5b604051908082528060200260200182016040528015620004ca57816020015b620004b662000aad565b815260200190600190039081620004ac5790505b50905060005b6002805490508110156200059757600060028281548110620004f757620004f662001212565b5b9060005260206000200160009054906101000a900473ffffffffffffffffffffffffffffffffffffffff1690506000620005318362000399565b905060405180604001604052808281526020018373ffffffffffffffffffffffffffffffffffffffff1681525084848151811062000574576200057362001212565b5b6020026020010181905250505080806200058e90620013de565b915050620004d0565b508091505090565b6060600060028381548110620005ba57620005b962001212565b5b9060005260206000200160009054906101000a900473ffffffffffffffffffffffffffffffffffffffff1673ffffffffffffffffffffffffffffffffffffffff1663e938aa99336040518263ffffffff1660e01b81526004016200061f919062001025565b600060405180830381865afa1580156200063d573d6000803e3d6000fd5b505050506040513d6000823e3d601f19601f82011682018060405250810190620006689190620015ac565b905080915050919050565b60008054906101000a900473ffffffffffffffffffffffffffffffffffffffff1681565b60028160008054906101000a900473ffffffffffffffffffffffffffffffffffffffff16604051620006c99062000add565b620006d6929190620015fd565b604051809103906000f080158015620006f3573d6000803e3d6000fd5b509080600181540180825580915050600190039060005260206000200160009091909190916101000a81548173ffffffffffffffffffffffffffffffffffffffff021916908373ffffffffffffffffffffffffffffffffffffffff1602179055506200075e62000a65565b50565b600281815481106200077257600080fd5b906000526020600020016000915054906101000a900473ffffffffffffffffffffffffffffffffffffffff1681565b606060028381548110620007ba57620007b962001212565b5b9060005260206000200160009054906101000a900473ffffffffffffffffffffffffffffffffffffffff1673ffffffffffffffffffffffffffffffffffffffff16633d995d4133846040518363ffffffff1660e01b81526004016200082192919062001241565b6000604051808303816000875af115801562000841573d6000803e3d6000fd5b505050506040513d6000823e3d601f19601f820116820180604052508101906200086c9190620012ec565b905092915050565b6000600282815481106200088d576200088c62001212565b5b9060005260206000200160009054906101000a900473ffffffffffffffffffffffffffffffffffffffff1673ffffffffffffffffffffffffffffffffffffffff1663f7e6af806040518163ffffffff1660e01b8152600401602060405180830381865afa15801562000903573d6000803e3d6000fd5b505050506040513d601f19601f8201168201806040525081019062000929919062001631565b9050919050565b60008190505b60016002805490506200094a919062001663565b81101562000a175760026001826200096391906200169e565b8154811062000977576200097662001212565b5b9060005260206000200160009054906101000a900473ffffffffffffffffffffffffffffffffffffffff1660028281548110620009b957620009b862001212565b5b9060005260206000200160006101000a81548173ffffffffffffffffffffffffffffffffffffffff021916908373ffffffffffffffffffffffffffffffffffffffff160217905550808062000a0e90620013de565b91505062000936565b50600280548062000a2d5762000a2c620016fb565b5b6001900381819060005260206000200160006101000a81549073ffffffffffffffffffffffffffffffffffffffff0219169055905550565b6001600081548092919062000a7a90620013de565b91905055507f0107890239a108f39705a21e092ee52a2418f4aeb8f9dc5958418787ece9ba7460405160405180910390a1565b604051806040016040528060608152602001600073ffffffffffffffffffffffffffffffffffffffff1681525090565b611659806200172b83390190565b6000604051905090565b600080fd5b600080fd5b6000819050919050565b62000b148162000aff565b811462000b2057600080fd5b50565b60008135905062000b348162000b09565b92915050565b600073ffffffffffffffffffffffffffffffffffffffff82169050919050565b600062000b678262000b3a565b9050919050565b62000b798162000b5a565b811462000b8557600080fd5b50565b60008135905062000b998162000b6e565b92915050565b6000806040838503121562000bb95762000bb862000af5565b5b600062000bc98582860162000b23565b925050602062000bdc8582860162000b88565b9150509250929050565b600081519050919050565b600082825260208201905092915050565b60005b8381101562000c2257808201518184015260208101905062000c05565b8381111562000c32576000848401525b50505050565b6000601f19601f8301169050919050565b600062000c568262000be6565b62000c62818562000bf1565b935062000c7481856020860162000c02565b62000c7f8162000c38565b840191505092915050565b6000602082019050818103600083015262000ca6818462000c49565b905092915050565b60006020828403121562000cc75762000cc662000af5565b5b600062000cd78482850162000b23565b91505092915050565b600081519050919050565b600082825260208201905092915050565b6000819050602082019050919050565b600082825260208201905092915050565b600062000d2a8262000be6565b62000d36818562000d0c565b935062000d4881856020860162000c02565b62000d538162000c38565b840191505092915050565b6000819050919050565b600062000d8962000d8362000d7d8462000b3a565b62000d5e565b62000b3a565b9050919050565b600062000d9d8262000d68565b9050919050565b600062000db18262000d90565b9050919050565b62000dc38162000da4565b82525050565b6000604083016000830151848203600086015262000de8828262000d1d565b915050602083015162000dff602086018262000db8565b508091505092915050565b600062000e18838362000dc9565b905092915050565b6000602082019050919050565b600062000e3a8262000ce0565b62000e46818562000ceb565b93508360208202850162000e5a8562000cfc565b8060005b8581101562000e9c578484038952815162000e7a858262000e0a565b945062000e878362000e20565b925060208a0199505060018101905062000e5e565b50829750879550505050505092915050565b6000602082019050818103600083015262000eca818462000e2d565b905092915050565b600081519050919050565b600082825260208201905092915050565b6000819050602082019050919050565b62000f098162000b5a565b82525050565b60008115159050919050565b62000f268162000f0f565b82525050565b60408201600082015162000f44600085018262000efe565b50602082015162000f59602085018262000f1b565b50505050565b600062000f6d838362000f2c565b60408301905092915050565b6000602082019050919050565b600062000f938262000ed2565b62000f9f818562000edd565b935062000fac8362000eee565b8060005b8381101562000fe357815162000fc7888262000f5f565b975062000fd48362000f79565b92505060018101905062000fb0565b5085935050505092915050565b600060208201905081810360008301526200100c818462000f86565b905092915050565b6200101f8162000b5a565b82525050565b60006020820190506200103c600083018462001014565b92915050565b600080fd5b600080fd5b7f4e487b7100000000000000000000000000000000000000000000000000000000600052604160045260246000fd5b620010868262000c38565b810181811067ffffffffffffffff82111715620010a857620010a76200104c565b5b80604052505050565b6000620010bd62000aeb565b9050620010cb82826200107b565b919050565b600067ffffffffffffffff821115620010ee57620010ed6200104c565b5b620010f98262000c38565b9050602081019050919050565b82818337600083830152505050565b60006200112c6200112684620010d0565b620010b1565b9050828152602081018484840111156200114b576200114a62001047565b5b6200115884828562001106565b509392505050565b600082601f83011262001178576200117762001042565b5b81356200118a84826020860162001115565b91505092915050565b600060208284031215620011ac57620011ab62000af5565b5b600082013567ffffffffffffffff811115620011cd57620011cc62000afa565b5b620011db8482850162001160565b91505092915050565b620011ef8162000da4565b82525050565b60006020820190506200120c6000830184620011e4565b92915050565b7f4e487b7100000000000000000000000000000000000000000000000000000000600052603260045260246000fd5b600060408201905062001258600083018562001014565b62001267602083018462001014565b9392505050565b6000620012856200127f84620010d0565b620010b1565b905082815260208101848484011115620012a457620012a362001047565b5b620012b184828562000c02565b509392505050565b600082601f830112620012d157620012d062001042565b5b8151620012e38482602086016200126e565b91505092915050565b60006020828403121562001305576200130462000af5565b5b600082015167ffffffffffffffff81111562001326576200132562000afa565b5b6200133484828501620012b9565b91505092915050565b7f6e6f7420617574686f72697a6564000000000000000000000000000000000000600082015250565b600062001375600e8362000bf1565b915062001382826200133d565b602082019050919050565b60006020820190508181036000830152620013a88162001366565b9050919050565b7f4e487b7100000000000000000000000000000000000000000000000000000000600052601160045260246000fd5b6000620013eb8262000aff565b91507fffffffffffffffffffffffffffffffffffffffffffffffffffffffffffffffff820362001420576200141f620013af565b5b600182019050919050565b600067ffffffffffffffff8211156200144957620014486200104c565b5b602082029050602081019050919050565b600080fd5b600080fd5b600081519050620014758162000b6e565b92915050565b620014868162000f0f565b81146200149257600080fd5b50565b600081519050620014a6816200147b565b92915050565b600060408284031215620014c557620014c46200145f565b5b620014d16040620010b1565b90506000620014e38482850162001464565b6000830152506020620014f98482850162001495565b60208301525092915050565b60006200151c62001516846200142b565b620010b1565b905080838252602082019050604084028301858111156200154257620015416200145a565b5b835b818110156200156f57806200155a8882620014ac565b84526020840193505060408101905062001544565b5050509392505050565b600082601f83011262001591576200159062001042565b5b8151620015a384826020860162001505565b91505092915050565b600060208284031215620015c557620015c462000af5565b5b600082015167ffffffffffffffff811115620015e657620015e562000afa565b5b620015f48482850162001579565b91505092915050565b6000604082019050818103600083015262001619818562000c49565b90506200162a602083018462001014565b9392505050565b6000602082840312156200164a576200164962000af5565b5b60006200165a8482850162001464565b91505092915050565b6000620016708262000aff565b91506200167d8362000aff565b925082821015620016935762001692620013af565b5b828203905092915050565b6000620016ab8262000aff565b9150620016b88362000aff565b9250827fffffffffffffffffffffffffffffffffffffffffffffffffffffffffffffffff03821115620016f057620016ef620013af565b5b828201905092915050565b7f4e487b7100000000000000000000000000000000000000000000000000000000600052603160045260246000fdfe60806040523480156200001157600080fd5b5060405162001659380380620016598339818101604052810190620000379190620002e0565b806000806101000a81548173ffffffffffffffffffffffffffffffffffffffff021916908373ffffffffffffffffffffffffffffffffffffffff16021790555062000088826200009060201b60201c565b5050620006ee565b8060019081620000a1919062000591565b507fbd5b5c69f4e137b236c0556d75664c0d0fff6d2bd7407142189755860da52e8981604051620000d39190620006ca565b60405180910390a150565b6000604051905090565b600080fd5b600080fd5b600080fd5b600080fd5b6000601f19601f8301169050919050565b7f4e487b7100000000000000000000000000000000000000000000000000000000600052604160045260246000fd5b6200014782620000fc565b810181811067ffffffffffffffff821117156200016957620001686200010d565b5b80604052505050565b60006200017e620000de565b90506200018c82826200013c565b919050565b600067ffffffffffffffff821115620001af57620001ae6200010d565b5b620001ba82620000fc565b9050602081019050919050565b60005b83811015620001e7578082015181840152602081019050620001ca565b83811115620001f7576000848401525b50505050565b6000620002146200020e8462000191565b62000172565b905082815260208101848484011115620002335762000232620000f7565b5b62000240848285620001c7565b509392505050565b600082601f83011262000260576200025f620000f2565b5b815162000272848260208601620001fd565b91505092915050565b600073ffffffffffffffffffffffffffffffffffffffff82169050919050565b6000620002a8826200027b565b9050919050565b620002ba816200029b565b8114620002c657600080fd5b50565b600081519050620002da81620002af565b92915050565b60008060408385031215620002fa57620002f9620000e8565b5b600083015167ffffffffffffffff8111156200031b576200031a620000ed565b5b620003298582860162000248565b92505060206200033c85828601620002c9565b9150509250929050565b600081519050919050565b7f4e487b7100000000000000000000000000000000000000000000000000000000600052602260045260246000fd5b600060028204905060018216806200039957607f821691505b602082108103620003af57620003ae62000351565b5b50919050565b60008190508160005260206000209050919050565b60006020601f8301049050919050565b600082821b905092915050565b600060088302620004197fffffffffffffffffffffffffffffffffffffffffffffffffffffffffffffffff82620003da565b620004258683620003da565b95508019841693508086168417925050509392505050565b6000819050919050565b6000819050919050565b6000620004726200046c62000466846200043d565b62000447565b6200043d565b9050919050565b6000819050919050565b6200048e8362000451565b620004a66200049d8262000479565b848454620003e7565b825550505050565b600090565b620004bd620004ae565b620004ca81848462000483565b505050565b5b81811015620004f257620004e6600082620004b3565b600181019050620004d0565b5050565b601f82111562000541576200050b81620003b5565b6200051684620003ca565b8101602085101562000526578190505b6200053e6200053585620003ca565b830182620004cf565b50505b505050565b600082821c905092915050565b6000620005666000198460080262000546565b1980831691505092915050565b600062000581838362000553565b9150826002028217905092915050565b6200059c8262000346565b67ffffffffffffffff811115620005b857620005b76200010d565b5b620005c4825462000380565b620005d1828285620004f6565b600060209050601f831160018114620006095760008415620005f4578287015190505b62000600858262000573565b86555062000670565b601f1984166200061986620003b5565b60005b8281101562000643578489015182556001820191506020850194506020810190506200061c565b868310156200066357848901516200065f601f89168262000553565b8355505b6001600288020188555050505b505050505050565b600082825260208201905092915050565b6000620006968262000346565b620006a2818562000678565b9350620006b4818560208601620001c7565b620006bf81620000fc565b840191505092915050565b60006020820190508181036000830152620006e6818462000689565b905092915050565b610f5b80620006fe6000396000f3fe608060405234801561001057600080fd5b506004361061009e5760003560e01c80638f84aa09116100665780638f84aa09146101815780638fbef3991461019f578063e938aa99146101cf578063f7e6af80146101ff578063fcc9b9261461021d5761009e565b80630787bc27146100a3578063102779a9146100d35780633d995d41146101035780635477c84914610133578063565974d314610163575b600080fd5b6100bd60048036038101906100b89190610ad4565b61024d565b6040516100ca9190610b1c565b60405180910390f35b6100ed60048036038101906100e89190610b37565b61026d565b6040516100fa9190610c10565b60405180910390f35b61011d60048036038101906101189190610b37565b610353565b60405161012a9190610c10565b60405180910390f35b61014d60048036038101906101489190610ad4565b61052a565b60405161015a9190610c10565b60405180910390f35b61016b61060c565b6040516101789190610c10565b60405180910390f35b61018961069a565b6040516101969190610c41565b60405180910390f35b6101b960048036038101906101b49190610ad4565b6106be565b6040516101c69190610b1c565b60405180910390f35b6101e960048036038101906101e49190610ad4565b61076a565b6040516101f69190610d58565b60405180910390f35b610207610957565b6040516102149190610c41565b60405180910390f35b61023760048036038101906102329190610ad4565b610980565b6040516102449190610b1c565b60405180910390f35b60026020528060005260406000206000915054906101000a900460ff1681565b6060610278836109e7565b15610312576000600260008473ffffffffffffffffffffffffffffffffffffffff1673ffffffffffffffffffffffffffffffffffffffff16815260200190815260200160002060006101000a81548160ff0219169083151502179055506040518060400160405280600481526020017f646f6e6500000000000000000000000000000000000000000000000000000000815250905061034d565b6040517f08c379a000000000000000000000000000000000000000000000000000000000815260040161034490610dc6565b60405180910390fd5b92915050565b606061035e836109e7565b156104e957600260008373ffffffffffffffffffffffffffffffffffffffff1673ffffffffffffffffffffffffffffffffffffffff16815260200190815260200160002060009054906101000a900460ff166104ac576001600260008473ffffffffffffffffffffffffffffffffffffffff1673ffffffffffffffffffffffffffffffffffffffff16815260200190815260200160002060006101000a81548160ff0219169083151502179055506003829080600181540180825580915050600190039060005260206000200160009091909190916101000a81548173ffffffffffffffffffffffffffffffffffffffff021916908373ffffffffffffffffffffffffffffffffffffffff1602179055506040518060400160405280600481526020017f646f6e65000000000000000000000000000000000000000000000000000000008152509050610524565b6040518060400160405280600d81526020017f616c7265616479206578697374000000000000000000000000000000000000008152509050610524565b6040517f08c379a000000000000000000000000000000000000000000000000000000000815260040161051b90610dc6565b60405180910390fd5b92915050565b6060610535826106be565b156105cc576001805461054790610e15565b80601f016020809104026020016040519081016040528092919081815260200182805461057390610e15565b80156105c05780601f10610595576101008083540402835291602001916105c0565b820191906000526020600020905b8154815290600101906020018083116105a357829003601f168201915b50505050509050610607565b6040517f08c379a00000000000000000000000000000000000000000000000000000000081526004016105fe90610dc6565b60405180910390fd5b919050565b6001805461061990610e15565b80601f016020809104026020016040519081016040528092919081815260200182805461064590610e15565b80156106925780601f1061066757610100808354040283529160200191610692565b820191906000526020600020905b81548152906001019060200180831161067557829003601f168201915b505050505081565b60008054906101000a900473ffffffffffffffffffffffffffffffffffffffff1681565b60008173ffffffffffffffffffffffffffffffffffffffff1660008054906101000a900473ffffffffffffffffffffffffffffffffffffffff1673ffffffffffffffffffffffffffffffffffffffff1614806107635750600260008373ffffffffffffffffffffffffffffffffffffffff1673ffffffffffffffffffffffffffffffffffffffff16815260200190815260200160002060009054906101000a900460ff165b9050919050565b6060610775826109e7565b1561091757600060038054905067ffffffffffffffff81111561079b5761079a610e46565b5b6040519080825280602002602001820160405280156107d457816020015b6107c1610a3f565b8152602001906001900390816107b95790505b50905060005b60038054905081101561090d5760405180604001604052806003838154811061080657610805610e75565b5b9060005260206000200160009054906101000a900473ffffffffffffffffffffffffffffffffffffffff1673ffffffffffffffffffffffffffffffffffffffff168152602001600260006003858154811061086457610863610e75565b5b9060005260206000200160009054906101000a900473ffffffffffffffffffffffffffffffffffffffff1673ffffffffffffffffffffffffffffffffffffffff1673ffffffffffffffffffffffffffffffffffffffff16815260200190815260200160002060009054906101000a900460ff1615158152508282815181106108ef576108ee610e75565b5b6020026020010181905250808061090590610edd565b9150506107da565b5080915050610952565b6040517f08c379a000000000000000000000000000000000000000000000000000000000815260040161094990610dc6565b60405180910390fd5b919050565b60008060009054906101000a900473ffffffffffffffffffffffffffffffffffffffff16905090565b6000600260008373ffffffffffffffffffffffffffffffffffffffff1673ffffffffffffffffffffffffffffffffffffffff16815260200190815260200160002060009054906101000a900460ff16156109dd57600190506109e2565b600090505b919050565b60008173ffffffffffffffffffffffffffffffffffffffff1660008054906101000a900473ffffffffffffffffffffffffffffffffffffffff1673ffffffffffffffffffffffffffffffffffffffff16149050919050565b6040518060400160405280600073ffffffffffffffffffffffffffffffffffffffff1681526020016000151581525090565b600080fd5b600073ffffffffffffffffffffffffffffffffffffffff82169050919050565b6000610aa182610a76565b9050919050565b610ab181610a96565b8114610abc57600080fd5b50565b600081359050610ace81610aa8565b92915050565b600060208284031215610aea57610ae9610a71565b5b6000610af884828501610abf565b91505092915050565b60008115159050919050565b610b1681610b01565b82525050565b6000602082019050610b316000830184610b0d565b92915050565b60008060408385031215610b4e57610b4d610a71565b5b6000610b5c85828601610abf565b9250506020610b6d85828601610abf565b9150509250929050565b600081519050919050565b600082825260208201905092915050565b60005b83811015610bb1578082015181840152602081019050610b96565b83811115610bc0576000848401525b50505050565b6000601f19601f8301169050919050565b6000610be282610b77565b610bec8185610b82565b9350610bfc818560208601610b93565b610c0581610bc6565b840191505092915050565b60006020820190508181036000830152610c2a8184610bd7565b905092915050565b610c3b81610a96565b82525050565b6000602082019050610c566000830184610c32565b92915050565b600081519050919050565b600082825260208201905092915050565b6000819050602082019050919050565b610c9181610a96565b82525050565b610ca081610b01565b82525050565b604082016000820151610cbc6000850182610c88565b506020820151610ccf6020850182610c97565b50505050565b6000610ce18383610ca6565b60408301905092915050565b6000602082019050919050565b6000610d0582610c5c565b610d0f8185610c67565b9350610d1a83610c78565b8060005b83811015610d4b578151610d328882610cd5565b9750610d3d83610ced565b925050600181019050610d1e565b5085935050505092915050565b60006020820190508181036000830152610d728184610cfa565b905092915050565b7f6e6f7420617574686f72697a6564000000000000000000000000000000000000600082015250565b6000610db0600e83610b82565b9150610dbb82610d7a565b602082019050919050565b60006020820190508181036000830152610ddf81610da3565b9050919050565b7f4e487b7100000000000000000000000000000000000000000000000000000000600052602260045260246000fd5b60006002820490506001821680610e2d57607f821691505b602082108103610e4057610e3f610de6565b5b50919050565b7f4e487b7100000000000000000000000000000000000000000000000000000000600052604160045260246000fd5b7f4e487b7100000000000000000000000000000000000000000000000000000000600052603260045260246000fd5b7f4e487b7100000000000000000000000000000000000000000000000000000000600052601160045260246000fd5b6000819050919050565b6000610ee882610ed3565b91507fffffffffffffffffffffffffffffffffffffffffffffffffffffffffffffffff8203610f1a57610f19610ea4565b5b60018201905091905056fea26469706673582212209732fdd9eaa2fad4a81ca12ec973dd6644a1b53d77d9556ef351171cd10160f264736f6c634300080f0033a2646970667358221220eaa63f4161ca4abd5037b8aade370bd3e97cee7aecd4573ff4a653d83ed137d164736f6c634300080f0033",
  "immutableReferences": {},
  "source": "// SPDX-License-Identifier: MIT\npragma solidity >=0.4.22 <0.9.0;\n\n\ncontract MedicalReport{\n    event AddDetails(string details);\n    event AccessDetails();\n    event GiveAccess(address account);\n    event RevokeAccess(address account);\n\n    address public ownerAddress;\n    string public details;\n    mapping(address => bool) public providers;\n\n    address[] private keys;\n\n\n    function _hasAccess(address _account) view public returns(bool) {\n        return (ownerAddress == _account || providers[_account]);\n    }\n\n    function isOwner(address _provider) view internal returns(bool) {\n        return (ownerAddress == _provider);\n    }\n\n    constructor(string memory details_, address sender_){\n        ownerAddress = sender_;\n        _addDetails(details_);\n    }\n\n    function _addDetails(string memory _details) internal{\n        details = _details;\n        emit AddDetails(_details);\n    }\n\n    function _verifyAccess(address _account) external view returns(bool){\n        if(providers[_account]){\n            return true;\n        } else{\n            return false;\n        }\n    }\n\n    function _accessDetails(address sender) external view returns(string memory){\n        if(_hasAccess(sender)){\n            return details;\n        }\n        revert(\"not authorized\");\n    }\n\n    function _getOwner() external view returns(address){\n        return ownerAddress;\n    }\n\n    function _giveAccess(address _owner, address _account) external returns(string memory){\n        if(isOwner(_owner)){\n            if(!providers[_account]){\n                providers[_account] = true;\n                keys.push(_account);\n                return \"done\";\n            }\n            return \"already exist\";\n        } else{\n            revert(\"not authorized\");\n        }\n    }\n\n    function _revokeAccess(address _owner, address _account) external returns(string memory){\n        if(isOwner(_owner)){\n            providers[_account] = false;\n            return \"done\";\n        } else{\n            revert(\"not authorized\");\n        }\n    }\n\n    function _allProvider(address _owner) external view returns(providerAll[] memory){\n        if(isOwner(_owner)){\n            providerAll[] memory allProviderDetails = new providerAll[](keys.length);\n            for(uint i=0; i < keys.length; i++ ){\n                allProviderDetails[i] = providerAll(keys[i], providers[keys[i]]);\n            }\n            return allProviderDetails;\n        }\n        revert(\"not authorized\");\n    }\n}\n\n    struct providerAll{\n        address providerAdd;\n        bool premission;\n    }\n\ncontract User {\n    event UnqIdGen();\n\n    struct report{\n        string details;\n        MedicalReport repAddress;\n    }\n\n    address public ownerAddress;\n    uint private unqId;\n\n    constructor(){\n        ownerAddress = msg.sender;\n        unqId= 0;\n    }\n\n    MedicalReport[] public _medicalReport;\n\n    function _unqIdGen() internal{\n        unqId ++;\n        emit UnqIdGen();\n    }\n\n    function _addMedicalReport(string memory _details) external{\n        _medicalReport.push(new MedicalReport(_details, ownerAddress));\n        _unqIdGen();\n    }\n\n    function _getDetails(uint _id) public view returns(string memory){\n        return _medicalReport[_id]._accessDetails(msg.sender);\n    }\n\n    function _getOwner(uint _id) internal view returns(address){\n        return _medicalReport[_id]._getOwner();\n    }\n\n    function _giveAccess(uint _id, address _account) external returns(string memory){\n        return _medicalReport[_id]._giveAccess(msg.sender, _account);\n    }\n\n    function _revokeAccess(uint _id, address _account) external returns(string memory){\n        return _medicalReport[_id]._revokeAccess(msg.sender, _account);\n    }\n\n    function _allProvider(uint _id) external view returns(providerAll[] memory){\n        providerAll[] memory allProviderDetails = _medicalReport[_id]._allProvider(msg.sender);\n        return allProviderDetails;\n    }\n\n    function _allMedicalReport() external view returns(report[] memory){\n        report[] memory allMedicalReport = new report[](_medicalReport.length);\n        for(uint i=0; i < _medicalReport.length; i++ ){\n            MedicalReport repAddress = _medicalReport[i];\n            string memory details = _getDetails(i);\n            allMedicalReport[i] = report({details:details , repAddress: repAddress});\n        }\n        return allMedicalReport;\n    }\n\n    function _removeEle(uint _index) internal {\n        for(uint i = _index; i < _medicalReport.length-1; i++){\n            _medicalReport[i] = _medicalReport[i+1];\n        }\n        _medicalReport.pop();\n    }\n\n    function _removeMedicalReport(uint _id) external {\n        if(msg.sender == _getOwner(_id)){\n            _removeEle(_id);\n        } else{\n            revert(\"not authorized\");\n        }\n    }\n\n}\n\ncontract Provider {\n    address internal ownerAddress;\n\n    struct accessReport{\n        MedicalReport _reportId;\n        bool access;\n    }\n\n    accessReport[] internal allAccessReport;\n\n    MedicalReport[] internal keys;\n\n    constructor(){\n        ownerAddress = msg.sender;\n    }\n\n    function _existsEle(MedicalReport _reportId) internal view returns (bool) {\n        for (uint i = 0; i < allAccessReport.length; i++) {\n            if (allAccessReport[i]._reportId == _reportId) {\n                return true;\n            }\n        }\n        return false;\n    }\n\n    function _removeEle(uint _index) internal {\n        for(uint i = _index; i < allAccessReport.length-1; i++){\n            allAccessReport[i] = allAccessReport[i+1];\n        }\n        allAccessReport.pop();\n    }\n\n    function _updateEle(uint _index, bool _access) internal {\n        allAccessReport[_index].access = _access;\n    }\n\n    function _queryIndex(MedicalReport _reportId) internal view returns (int) {\n        for (int i = 0; i < int(allAccessReport.length); i++) {\n            if (allAccessReport[uint256(i)]._reportId == _reportId) {\n                return i;\n            }\n        }\n        return -1;\n    }\n\n    function _verifyDetail(MedicalReport _reportId) external returns(string memory){\n        if(_reportId._verifyAccess(msg.sender)){\n            if(!_existsEle(_reportId)){\n                allAccessReport.push(accessReport({_reportId:_reportId, access: true}));\n            }\n            return _getDetails(_reportId);\n        } else{\n            int idx = _queryIndex(_reportId);\n            if(idx != -1){\n                _updateEle(uint(idx), false);\n            }\n            revert(\"not authorized\");\n        }\n    }\n\n    function _allhaveAccess() external view returns(accessReport[] memory){\n        return allAccessReport;\n    }\n\n    function _removeReport(MedicalReport _reportId) external{\n        int idx = _queryIndex(_reportId);\n        if(idx != -1){\n            _removeEle(uint(idx));\n            return;\n        }\n        revert(\"report does not exist!\");\n    }\n\n    function _getDetails(MedicalReport _reportId) public view returns(string memory){\n        return _reportId._accessDetails(msg.sender);\n    }\n\n    function _getOwner(MedicalReport _reportId) external view returns(address){\n        return _reportId._getOwner();\n    }\n}",
  "sourcePath": "/home/bivas/Desktop/medical-data-privacy-using-blockchain/backend/contracts/MedReportMannageMent.sol",
  "compiler": {
    "name": "solc",
    "version": "0.8.15+commit.e14f2714.Emscripten.clang"
  },
  "schemaVersion": "3.4.9",
  "updatedAt": "2022-08-21T19:57:14.548Z",
  "networkType": "ethereum",
  "devdoc": {
    "kind": "dev",
    "methods": {},
    "version": 1
  },
  "userdoc": {
    "kind": "user",
    "methods": {},
    "version": 1
  }
}